{
  "contractName": "SmartphoneMakerRole",
  "abi": [
    {
      "inputs": [],
      "payable": false,
      "stateMutability": "nonpayable",
      "type": "constructor"
    },
    {
      "anonymous": false,
      "inputs": [
        {
          "indexed": true,
          "name": "account",
          "type": "address"
        }
      ],
      "name": "SmartphoneMakerAdded",
      "type": "event"
    },
    {
      "anonymous": false,
      "inputs": [
        {
          "indexed": true,
          "name": "account",
          "type": "address"
        }
      ],
      "name": "SmartphoneMakerRemoved",
      "type": "event"
    },
    {
      "constant": true,
      "inputs": [
        {
          "name": "a",
          "type": "address"
        }
      ],
      "name": "isSmartphoneMaker",
      "outputs": [
        {
          "name": "",
          "type": "bool"
        }
      ],
      "payable": false,
      "stateMutability": "view",
      "type": "function"
    },
    {
      "constant": false,
      "inputs": [
        {
          "name": "smartphoneMaker",
          "type": "address"
        }
      ],
      "name": "addSmartphoneMaker",
      "outputs": [],
      "payable": false,
      "stateMutability": "nonpayable",
      "type": "function"
    },
    {
      "constant": false,
      "inputs": [
        {
          "name": "smartphoneMaker",
          "type": "address"
        }
      ],
      "name": "removeSmartphoneMaker",
      "outputs": [],
      "payable": false,
      "stateMutability": "nonpayable",
      "type": "function"
    }
  ],
  "bytecode": "0x608060405234801561001057600080fd5b506100293361002e640100000000026401000000009004565b6101e8565b61004f8160006100956401000000000261020e179091906401000000009004565b8073ffffffffffffffffffffffffffffffffffffffff167f496ad62f0c25dc09e957f3b1fdf9056641f35469c9ca63c85d811cb7eee539e260405160405180910390a250565b600073ffffffffffffffffffffffffffffffffffffffff168173ffffffffffffffffffffffffffffffffffffffff16141515156100d157600080fd5b6100ea8282610154640100000000026401000000009004565b1515156100f657600080fd5b60018260000160008373ffffffffffffffffffffffffffffffffffffffff1673ffffffffffffffffffffffffffffffffffffffff16815260200190815260200160002060006101000a81548160ff0219169083151502179055505050565b60008073ffffffffffffffffffffffffffffffffffffffff168273ffffffffffffffffffffffffffffffffffffffff161415151561019157600080fd5b8260000160008373ffffffffffffffffffffffffffffffffffffffff1673ffffffffffffffffffffffffffffffffffffffff16815260200190815260200160002060009054906101000a900460ff16905092915050565b61042d806101f76000396000f300608060405260043610610057576000357c0100000000000000000000000000000000000000000000000000000000900463ffffffff1680631debc0bd1461005c578063575cde4a1461009f578063f3c16520146100e2575b600080fd5b34801561006857600080fd5b5061009d600480360381019080803573ffffffffffffffffffffffffffffffffffffffff16906020019092919050505061013d565b005b3480156100ab57600080fd5b506100e0600480360381019080803573ffffffffffffffffffffffffffffffffffffffff169060200190929190505050610197565b005b3480156100ee57600080fd5b50610123600480360381019080803573ffffffffffffffffffffffffffffffffffffffff1690602001909291905050506101f1565b604051808215151515815260200191505060405180910390f35b61015181600061020e90919063ffffffff16565b8073ffffffffffffffffffffffffffffffffffffffff167f496ad62f0c25dc09e957f3b1fdf9056641f35469c9ca63c85d811cb7eee539e260405160405180910390a250565b6101ab8160006102be90919063ffffffff16565b8073ffffffffffffffffffffffffffffffffffffffff167fc088beaf9bee31048eaa164432314f2972aeef29f145258bc963d2e6dc93e48d60405160405180910390a250565b600061020782600061036d90919063ffffffff16565b9050919050565b600073ffffffffffffffffffffffffffffffffffffffff168173ffffffffffffffffffffffffffffffffffffffff161415151561024a57600080fd5b610254828261036d565b15151561026057600080fd5b60018260000160008373ffffffffffffffffffffffffffffffffffffffff1673ffffffffffffffffffffffffffffffffffffffff16815260200190815260200160002060006101000a81548160ff0219169083151502179055505050565b600073ffffffffffffffffffffffffffffffffffffffff168173ffffffffffffffffffffffffffffffffffffffff16141515156102fa57600080fd5b610304828261036d565b151561030f57600080fd5b60008260000160008373ffffffffffffffffffffffffffffffffffffffff1673ffffffffffffffffffffffffffffffffffffffff16815260200190815260200160002060006101000a81548160ff0219169083151502179055505050565b60008073ffffffffffffffffffffffffffffffffffffffff168273ffffffffffffffffffffffffffffffffffffffff16141515156103aa57600080fd5b8260000160008373ffffffffffffffffffffffffffffffffffffffff1673ffffffffffffffffffffffffffffffffffffffff16815260200190815260200160002060009054906101000a900460ff169050929150505600a165627a7a7230582037b7013e47aba69de3f81cf908de397ebc8a1afe0dd37b0089c0e19cd6ab88a60029",
  "source": "pragma solidity ^0.4.24;\nimport \"./Roles.sol\";\n\ncontract SmartphoneMakerRole {\n\n    using Roles for Roles.Role;\n\n    Roles.Role private smartphoneMakers;\n\n    event SmartphoneMakerAdded(address indexed account);\n    event SmartphoneMakerRemoved(address indexed account);\n\n    constructor() public {\n        addSmartphoneMaker(msg.sender);\n    }\n\n    modifier onlySmartphoneMaker() {\n        require(isSmartphoneMaker(msg.sender));\n        _;\n    } \n\n    function isSmartphoneMaker(address a) public view returns (bool) {\n        return smartphoneMakers.has(a);\n    }\n\n    function addSmartphoneMaker(address smartphoneMaker) public {\n        smartphoneMakers.add(smartphoneMaker);\n        emit SmartphoneMakerAdded(smartphoneMaker);\n    }\n\n    function removeSmartphoneMaker(address smartphoneMaker) public {\n        smartphoneMakers.remove(smartphoneMaker);\n        emit SmartphoneMakerRemoved(smartphoneMaker);\n    }\n\n}",
  "sourcePath": "/home/ubuntu/smartphone-supplychain-solidity/contracts/accesscontrols/SmartphoneMakerRole.sol",
  "compiler": {
    "name": "solc",
    "version": "0.4.26+commit.4563c3fc.Emscripten.clang"
  },
  "schemaVersion": "2.0.3",
  "updatedAt": "2020-02-12T13:40:59.884Z"
}