{
  "contractName": "SupplyChain",
  "abi": [
    {
      "constant": false,
      "inputs": [
        {
          "name": "consumer",
          "type": "address"
        }
      ],
      "name": "removeConsumer",
      "outputs": [],
      "payable": false,
      "stateMutability": "nonpayable",
      "type": "function"
    },
    {
      "constant": false,
      "inputs": [
        {
          "name": "consumer",
          "type": "address"
        }
      ],
      "name": "addConsumer",
      "outputs": [],
      "payable": false,
      "stateMutability": "nonpayable",
      "type": "function"
    },
    {
      "constant": true,
      "inputs": [
        {
          "name": "a",
          "type": "address"
        }
      ],
      "name": "isManufacturer",
      "outputs": [
        {
          "name": "",
          "type": "bool"
        }
      ],
      "payable": false,
      "stateMutability": "view",
      "type": "function"
    },
    {
      "constant": false,
      "inputs": [
        {
          "name": "smartphoneMaker",
          "type": "address"
        }
      ],
      "name": "addSmartphoneMaker",
      "outputs": [],
      "payable": false,
      "stateMutability": "nonpayable",
      "type": "function"
    },
    {
      "constant": false,
      "inputs": [
        {
          "name": "smartphoneMaker",
          "type": "address"
        }
      ],
      "name": "removeSmartphoneMaker",
      "outputs": [],
      "payable": false,
      "stateMutability": "nonpayable",
      "type": "function"
    },
    {
      "constant": true,
      "inputs": [
        {
          "name": "a",
          "type": "address"
        }
      ],
      "name": "isRetailer",
      "outputs": [
        {
          "name": "",
          "type": "bool"
        }
      ],
      "payable": false,
      "stateMutability": "view",
      "type": "function"
    },
    {
      "constant": false,
      "inputs": [
        {
          "name": "manufacturer",
          "type": "address"
        }
      ],
      "name": "addManufacturer",
      "outputs": [],
      "payable": false,
      "stateMutability": "nonpayable",
      "type": "function"
    },
    {
      "constant": false,
      "inputs": [
        {
          "name": "manufacturer",
          "type": "address"
        }
      ],
      "name": "removeManufacturer",
      "outputs": [],
      "payable": false,
      "stateMutability": "nonpayable",
      "type": "function"
    },
    {
      "constant": false,
      "inputs": [
        {
          "name": "retailer",
          "type": "address"
        }
      ],
      "name": "removeRetailer",
      "outputs": [],
      "payable": false,
      "stateMutability": "nonpayable",
      "type": "function"
    },
    {
      "constant": true,
      "inputs": [
        {
          "name": "a",
          "type": "address"
        }
      ],
      "name": "isConsumer",
      "outputs": [
        {
          "name": "",
          "type": "bool"
        }
      ],
      "payable": false,
      "stateMutability": "view",
      "type": "function"
    },
    {
      "constant": false,
      "inputs": [
        {
          "name": "retailer",
          "type": "address"
        }
      ],
      "name": "addRetailer",
      "outputs": [],
      "payable": false,
      "stateMutability": "nonpayable",
      "type": "function"
    },
    {
      "constant": true,
      "inputs": [
        {
          "name": "a",
          "type": "address"
        }
      ],
      "name": "isSmartphoneMaker",
      "outputs": [
        {
          "name": "",
          "type": "bool"
        }
      ],
      "payable": false,
      "stateMutability": "view",
      "type": "function"
    },
    {
      "inputs": [],
      "payable": true,
      "stateMutability": "payable",
      "type": "constructor"
    },
    {
      "anonymous": false,
      "inputs": [
        {
          "indexed": false,
          "name": "upc",
          "type": "uint256"
        }
      ],
      "name": "ComponentsManufactured",
      "type": "event"
    },
    {
      "anonymous": false,
      "inputs": [
        {
          "indexed": false,
          "name": "upc",
          "type": "uint256"
        }
      ],
      "name": "SmartphoneAssembled",
      "type": "event"
    },
    {
      "anonymous": false,
      "inputs": [
        {
          "indexed": false,
          "name": "upc",
          "type": "uint256"
        }
      ],
      "name": "ShippedToRetailer",
      "type": "event"
    },
    {
      "anonymous": false,
      "inputs": [
        {
          "indexed": false,
          "name": "upc",
          "type": "uint256"
        }
      ],
      "name": "ReceivedByRetailer",
      "type": "event"
    },
    {
      "anonymous": false,
      "inputs": [
        {
          "indexed": false,
          "name": "upc",
          "type": "uint256"
        }
      ],
      "name": "OnSale",
      "type": "event"
    },
    {
      "anonymous": false,
      "inputs": [
        {
          "indexed": false,
          "name": "upc",
          "type": "uint256"
        }
      ],
      "name": "Sold",
      "type": "event"
    },
    {
      "anonymous": false,
      "inputs": [
        {
          "indexed": false,
          "name": "upc",
          "type": "uint256"
        }
      ],
      "name": "ShippedToConsumer",
      "type": "event"
    },
    {
      "anonymous": false,
      "inputs": [
        {
          "indexed": false,
          "name": "upc",
          "type": "uint256"
        }
      ],
      "name": "ReceivedByConsumer",
      "type": "event"
    },
    {
      "anonymous": false,
      "inputs": [
        {
          "indexed": true,
          "name": "account",
          "type": "address"
        }
      ],
      "name": "ConsumerAdded",
      "type": "event"
    },
    {
      "anonymous": false,
      "inputs": [
        {
          "indexed": true,
          "name": "account",
          "type": "address"
        }
      ],
      "name": "ConsumerRemoved",
      "type": "event"
    },
    {
      "anonymous": false,
      "inputs": [
        {
          "indexed": true,
          "name": "account",
          "type": "address"
        }
      ],
      "name": "RetailerAdded",
      "type": "event"
    },
    {
      "anonymous": false,
      "inputs": [
        {
          "indexed": true,
          "name": "account",
          "type": "address"
        }
      ],
      "name": "RetailerRemoved",
      "type": "event"
    },
    {
      "anonymous": false,
      "inputs": [
        {
          "indexed": true,
          "name": "account",
          "type": "address"
        }
      ],
      "name": "SmartphoneMakerAdded",
      "type": "event"
    },
    {
      "anonymous": false,
      "inputs": [
        {
          "indexed": true,
          "name": "account",
          "type": "address"
        }
      ],
      "name": "SmartphoneMakerRemoved",
      "type": "event"
    },
    {
      "anonymous": false,
      "inputs": [
        {
          "indexed": true,
          "name": "account",
          "type": "address"
        }
      ],
      "name": "ManufacturerAdded",
      "type": "event"
    },
    {
      "anonymous": false,
      "inputs": [
        {
          "indexed": true,
          "name": "account",
          "type": "address"
        }
      ],
      "name": "ManufacturerRemoved",
      "type": "event"
    },
    {
      "constant": false,
      "inputs": [],
      "name": "kill",
      "outputs": [],
      "payable": false,
      "stateMutability": "nonpayable",
      "type": "function"
    },
    {
      "constant": true,
      "inputs": [
        {
          "name": "_upc",
          "type": "uint256"
        }
      ],
      "name": "getItemPrice",
      "outputs": [
        {
          "name": "price",
          "type": "uint256"
        }
      ],
      "payable": false,
      "stateMutability": "view",
      "type": "function"
    },
    {
      "constant": true,
      "inputs": [
        {
          "name": "_upc",
          "type": "uint256"
        }
      ],
      "name": "isItemOnSale",
      "outputs": [
        {
          "name": "",
          "type": "bool"
        }
      ],
      "payable": false,
      "stateMutability": "view",
      "type": "function"
    },
    {
      "constant": false,
      "inputs": [
        {
          "name": "_upc",
          "type": "uint256"
        },
        {
          "name": "_notes",
          "type": "string"
        },
        {
          "name": "_price",
          "type": "uint256"
        }
      ],
      "name": "manufactureComponents",
      "outputs": [],
      "payable": false,
      "stateMutability": "nonpayable",
      "type": "function"
    },
    {
      "constant": false,
      "inputs": [
        {
          "name": "_upc",
          "type": "uint256"
        },
        {
          "name": "assemblyCost",
          "type": "uint256"
        }
      ],
      "name": "assembleSmartphone",
      "outputs": [],
      "payable": false,
      "stateMutability": "nonpayable",
      "type": "function"
    },
    {
      "constant": false,
      "inputs": [
        {
          "name": "_upc",
          "type": "uint256"
        }
      ],
      "name": "retailerBuy",
      "outputs": [],
      "payable": true,
      "stateMutability": "payable",
      "type": "function"
    },
    {
      "constant": false,
      "inputs": [
        {
          "name": "_upc",
          "type": "uint256"
        }
      ],
      "name": "markReceivedByRetailer",
      "outputs": [],
      "payable": false,
      "stateMutability": "nonpayable",
      "type": "function"
    },
    {
      "constant": false,
      "inputs": [
        {
          "name": "_upc",
          "type": "uint256"
        },
        {
          "name": "price",
          "type": "uint256"
        }
      ],
      "name": "putForSale",
      "outputs": [],
      "payable": false,
      "stateMutability": "nonpayable",
      "type": "function"
    },
    {
      "constant": false,
      "inputs": [
        {
          "name": "_upc",
          "type": "uint256"
        }
      ],
      "name": "consumerBuy",
      "outputs": [],
      "payable": true,
      "stateMutability": "payable",
      "type": "function"
    },
    {
      "constant": false,
      "inputs": [
        {
          "name": "_upc",
          "type": "uint256"
        }
      ],
      "name": "shipToConsumer",
      "outputs": [],
      "payable": false,
      "stateMutability": "nonpayable",
      "type": "function"
    },
    {
      "constant": false,
      "inputs": [
        {
          "name": "_upc",
          "type": "uint256"
        }
      ],
      "name": "markReceivedByConsumer",
      "outputs": [],
      "payable": false,
      "stateMutability": "nonpayable",
      "type": "function"
    },
    {
      "constant": true,
      "inputs": [
        {
          "name": "_upc",
          "type": "uint256"
        }
      ],
      "name": "getItemInfo",
      "outputs": [
        {
          "name": "iSku",
          "type": "uint256"
        },
        {
          "name": "iUpc",
          "type": "uint256"
        },
        {
          "name": "ownerID",
          "type": "address"
        },
        {
          "name": "originID",
          "type": "address"
        },
        {
          "name": "productID",
          "type": "uint256"
        },
        {
          "name": "productNotes",
          "type": "string"
        },
        {
          "name": "price",
          "type": "uint256"
        },
        {
          "name": "itemState",
          "type": "uint8"
        },
        {
          "name": "smartphoneMakerID",
          "type": "address"
        },
        {
          "name": "retailerID",
          "type": "address"
        },
        {
          "name": "consumerID",
          "type": "address"
        }
      ],
      "payable": false,
      "stateMutability": "view",
      "type": "function"
    }
  ],
  "bytecode": "0x60806040526200001e33620000c3640100000000026401000000009004565b62000038336200012d640100000000026401000000009004565b620000523362000197640100000000026401000000009004565b6200006c3362000201640100000000026401000000009004565b33600460006101000a81548173ffffffffffffffffffffffffffffffffffffffff021916908373ffffffffffffffffffffffffffffffffffffffff16021790555060016006819055506001600581905550620003c3565b620000e78160006200026b6401000000000262002549179091906401000000009004565b8073ffffffffffffffffffffffffffffffffffffffff167f561138658ca49a8540dc70dcfe64c9026c1c5b9344642242dd6562970f9c127860405160405180910390a250565b620001518160016200026b6401000000000262002549179091906401000000009004565b8073ffffffffffffffffffffffffffffffffffffffff167f496ad62f0c25dc09e957f3b1fdf9056641f35469c9ca63c85d811cb7eee539e260405160405180910390a250565b620001bb8160026200026b6401000000000262002549179091906401000000009004565b8073ffffffffffffffffffffffffffffffffffffffff167f71ae26cad02663e3d92efd6ec56031a80d74a20c0ab4183faa8bf262261c9baa60405160405180910390a250565b620002258160036200026b6401000000000262002549179091906401000000009004565b8073ffffffffffffffffffffffffffffffffffffffff167f28b26e7a3d20aedbc5f8f2ebf7da671c0491723a2b78f47a097b0e46dee0714260405160405180910390a250565b600073ffffffffffffffffffffffffffffffffffffffff168173ffffffffffffffffffffffffffffffffffffffff1614151515620002a857600080fd5b620002c382826200032e640100000000026401000000009004565b151515620002d057600080fd5b60018260000160008373ffffffffffffffffffffffffffffffffffffffff1673ffffffffffffffffffffffffffffffffffffffff16815260200190815260200160002060006101000a81548160ff0219169083151502179055505050565b60008073ffffffffffffffffffffffffffffffffffffffff168273ffffffffffffffffffffffffffffffffffffffff16141515156200036c57600080fd5b8260000160008373ffffffffffffffffffffffffffffffffffffffff1673ffffffffffffffffffffffffffffffffffffffff16815260200190815260200160002060009054906101000a900460ff16905092915050565b61283280620003d36000396000f30060806040526004361061013e576000357c0100000000000000000000000000000000000000000000000000000000900463ffffffff1680630e27e3df14610143578063112940f91461018657806317d4a491146101c95780631debc0bd146102245780631f20714c1461026757806333cc4e0b1461029e57806339956a7b146102e35780633cd76be21461031057806341c0e1b5146103475780634c4df8701461035e5780635510913f1461039f578063575cde4a1461041c5780635da09b881461045f5780635f8a5afa146104ba5780636a75323f146104fd57806370099ec814610540578063834ff739146105835780638ec4f505146105de5780639f3ffd3714610621578063a800c0c514610641578063d92747351461066e578063de7fe3e71461068e578063eec7576514610864578063f3c1652014610891575b600080fd5b34801561014f57600080fd5b50610184600480360381019080803573ffffffffffffffffffffffffffffffffffffffff1690602001909291905050506108ec565b005b34801561019257600080fd5b506101c7600480360381019080803573ffffffffffffffffffffffffffffffffffffffff169060200190929190505050610946565b005b3480156101d557600080fd5b5061020a600480360381019080803573ffffffffffffffffffffffffffffffffffffffff1690602001909291905050506109a0565b604051808215151515815260200191505060405180910390f35b34801561023057600080fd5b50610265600480360381019080803573ffffffffffffffffffffffffffffffffffffffff1690602001909291905050506109bd565b005b34801561027357600080fd5b5061029c6004803603810190808035906020019092919080359060200190929190505050610a17565b005b3480156102aa57600080fd5b506102c960048036038101908080359060200190929190505050610cd3565b604051808215151515815260200191505060405180910390f35b3480156102ef57600080fd5b5061030e60048036038101908080359060200190929190505050610d19565b005b34801561031c57600080fd5b506103456004803603810190808035906020019092919080359060200190929190505050610ec8565b005b34801561035357600080fd5b5061035c6110ce565b005b34801561036a57600080fd5b5061038960048036038101908080359060200190929190505050611161565b6040518082815260200191505060405180910390f35b3480156103ab57600080fd5b5061041a60048036038101908080359060200190929190803590602001908201803590602001908080601f016020809104026020016040519081016040528093929190818152602001838380828437820191505050505050919291929080359060200190929190505050611234565b005b34801561042857600080fd5b5061045d600480360381019080803573ffffffffffffffffffffffffffffffffffffffff1690602001909291905050506116fd565b005b34801561046b57600080fd5b506104a0600480360381019080803573ffffffffffffffffffffffffffffffffffffffff169060200190929190505050611757565b604051808215151515815260200191505060405180910390f35b3480156104c657600080fd5b506104fb600480360381019080803573ffffffffffffffffffffffffffffffffffffffff169060200190929190505050611774565b005b34801561050957600080fd5b5061053e600480360381019080803573ffffffffffffffffffffffffffffffffffffffff1690602001909291905050506117ce565b005b34801561054c57600080fd5b50610581600480360381019080803573ffffffffffffffffffffffffffffffffffffffff169060200190929190505050611828565b005b34801561058f57600080fd5b506105c4600480360381019080803573ffffffffffffffffffffffffffffffffffffffff169060200190929190505050611882565b604051808215151515815260200191505060405180910390f35b3480156105ea57600080fd5b5061061f600480360381019080803573ffffffffffffffffffffffffffffffffffffffff16906020019092919050505061189f565b005b61063f600480360381019080803590602001909291905050506118f9565b005b34801561064d57600080fd5b5061066c60048036038101908080359060200190929190505050611b2f565b005b61068c60048036038101908080359060200190929190505050611cde565b005b34801561069a57600080fd5b506106b960048036038101908080359060200190929190505050611f14565b604051808c81526020018b81526020018a73ffffffffffffffffffffffffffffffffffffffff1673ffffffffffffffffffffffffffffffffffffffff1681526020018973ffffffffffffffffffffffffffffffffffffffff1673ffffffffffffffffffffffffffffffffffffffff1681526020018881526020018060200187815260200186600881111561074957fe5b60ff1681526020018573ffffffffffffffffffffffffffffffffffffffff1673ffffffffffffffffffffffffffffffffffffffff1681526020018473ffffffffffffffffffffffffffffffffffffffff1673ffffffffffffffffffffffffffffffffffffffff1681526020018373ffffffffffffffffffffffffffffffffffffffff1673ffffffffffffffffffffffffffffffffffffffff168152602001828103825288818151815260200191508051906020019080838360005b8381101561081f578082015181840152602081019050610804565b50505050905090810190601f16801561084c5780820380516001836020036101000a031916815260200191505b509c5050505050505050505050505060405180910390f35b34801561087057600080fd5b5061088f600480360381019080803590602001909291905050506122ce565b005b34801561089d57600080fd5b506108d2600480360381019080803573ffffffffffffffffffffffffffffffffffffffff16906020019092919050505061247d565b604051808215151515815260200191505060405180910390f35b61090081600361249a90919063ffffffff16565b8073ffffffffffffffffffffffffffffffffffffffff167fe3f5ed5f263f1f01764a96edfc7d025f511ec5f7d180e8816908b78bcf74f09860405160405180910390a250565b61095a81600361254990919063ffffffff16565b8073ffffffffffffffffffffffffffffffffffffffff167f28b26e7a3d20aedbc5f8f2ebf7da671c0491723a2b78f47a097b0e46dee0714260405160405180910390a250565b60006109b68260006125f990919063ffffffff16565b9050919050565b6109d181600161254990919063ffffffff16565b8073ffffffffffffffffffffffffffffffffffffffff167f496ad62f0c25dc09e957f3b1fdf9056641f35469c9ca63c85d811cb7eee539e260405160405180910390a250565b60008260016008811115610a2757fe5b6007600083815260200190815260200160002060070160009054906101000a900460ff166008811115610a5657fe5b141515610a6257600080fd5b610a6b3361247d565b1515610a7657600080fd5b60076000858152602001908152602001600020915060008260070160019054906101000a900473ffffffffffffffffffffffffffffffffffffffff1673ffffffffffffffffffffffffffffffffffffffff16141515610b3d576040517f08c379a000000000000000000000000000000000000000000000000000000000815260040180806020018281038252601c8152602001807f536d61727470686f6e6520616c726561647920617373656d626c65640000000081525060200191505060405180910390fd5b600083111515610bdb576040517f08c379a00000000000000000000000000000000000000000000000000000000081526004018080602001828103825260268152602001807f417373656d626c7920636f7374206973206e6f7420677265617465722074686181526020017f6e207a65726f000000000000000000000000000000000000000000000000000081525060400191505060405180910390fd5b338260020160006101000a81548173ffffffffffffffffffffffffffffffffffffffff021916908373ffffffffffffffffffffffffffffffffffffffff16021790555082826006015401826006018190555060028260070160006101000a81548160ff02191690836008811115610c4e57fe5b0217905550338260070160016101000a81548173ffffffffffffffffffffffffffffffffffffffff021916908373ffffffffffffffffffffffffffffffffffffffff1602179055507ffaecd976c153bbbfb466fee0beafdbc46a49278a3ac7d8f28da6da1da8f4c8ab846040518082815260200191505060405180910390a150505050565b600060056008811115610ce257fe5b6007600084815260200190815260200160002060070160009054906101000a900460ff166008811115610d1157fe5b149050919050565b60008160066008811115610d2957fe5b6007600083815260200190815260200160002060070160009054906101000a900460ff166008811115610d5857fe5b141515610d6457600080fd5b6007600084815260200190815260200160002091503373ffffffffffffffffffffffffffffffffffffffff168260080160009054906101000a900473ffffffffffffffffffffffffffffffffffffffff1673ffffffffffffffffffffffffffffffffffffffff16141515610e66576040517f08c379a000000000000000000000000000000000000000000000000000000000815260040180806020018281038252602d8152602001807f4f6e6c79207468652072657461696c6572206f66207468617420736d6172747081526020017f686f6e652063616e20736869700000000000000000000000000000000000000081525060400191505060405180910390fd5b60078260070160006101000a81548160ff02191690836008811115610e8757fe5b02179055507f3a0b536b05e501b9300785414f4a59db7853e633dddd6d95660f2606868a4503836040518082815260200191505060405180910390a1505050565b60008260046008811115610ed857fe5b6007600083815260200190815260200160002060070160009054906101000a900460ff166008811115610f0757fe5b1480610f4c575060056008811115610f1b57fe5b6007600083815260200190815260200160002060070160009054906101000a900460ff166008811115610f4a57fe5b145b1515610f5757600080fd5b6007600085815260200190815260200160002091503373ffffffffffffffffffffffffffffffffffffffff168260020160009054906101000a900473ffffffffffffffffffffffffffffffffffffffff1673ffffffffffffffffffffffffffffffffffffffff16141515611059576040517f08c379a00000000000000000000000000000000000000000000000000000000081526004018080602001828103825260218152602001807f4e6f74207468652072657461696c6572206f662074686520676976656e20757081526020017f630000000000000000000000000000000000000000000000000000000000000081525060400191505060405180910390fd5b60058260070160006101000a81548160ff0219169083600881111561107a57fe5b02179055508282600601600082825401925050819055507f6826140490b8e3cb7f1acaadc491af2c8803ed6a350ed83565db9fe625e1afe7846040518082815260200191505060405180910390a150505050565b600460009054906101000a900473ffffffffffffffffffffffffffffffffffffffff1673ffffffffffffffffffffffffffffffffffffffff163373ffffffffffffffffffffffffffffffffffffffff16141561115f57600460009054906101000a900473ffffffffffffffffffffffffffffffffffffffff1673ffffffffffffffffffffffffffffffffffffffff16ff5b565b6000806007600084815260200190815260200160002060060154111515611216576040517f08c379a00000000000000000000000000000000000000000000000000000000081526004018080602001828103825260238152602001807f4974656d207072696365206973206e6f742067726561746572207468616e207a81526020017f65726f000000000000000000000000000000000000000000000000000000000081525060400191505060405180910390fd5b60076000838152602001908152602001600020600601549050919050565b61123c61268d565b611245336109a0565b151561125057600080fd5b600084141515156112c9576040517f08c379a00000000000000000000000000000000000000000000000000000000081526004018080602001828103825260118152602001807f5550432063616e2774206265207a65726f00000000000000000000000000000081525060200191505060405180910390fd5b8360076000868152602001908152602001600020600101541415151561137d576040517f08c379a00000000000000000000000000000000000000000000000000000000081526004018080602001828103825260268152602001807f4974656d20616c7265616479206578697374732077697468207468652067697681526020017f656e20757063000000000000000000000000000000000000000000000000000081525060400191505060405180910390fd5b6000821115156113f5576040517f08c379a000000000000000000000000000000000000000000000000000000000815260040180806020018281038252601e8152602001807f5072696365206973206e6f742067726561746572207468616e207a65726f000081525060200191505060405180910390fd5b6101606040519081016040528060065481526020018581526020013373ffffffffffffffffffffffffffffffffffffffff1681526020013373ffffffffffffffffffffffffffffffffffffffff1681526020016005546006540181526020018481526020018381526020016001600881111561146d57fe5b8152602001600073ffffffffffffffffffffffffffffffffffffffff168152602001600073ffffffffffffffffffffffffffffffffffffffff168152602001600073ffffffffffffffffffffffffffffffffffffffff1681525090508060076000868152602001908152602001600020600082015181600001556020820151816001015560408201518160020160006101000a81548173ffffffffffffffffffffffffffffffffffffffff021916908373ffffffffffffffffffffffffffffffffffffffff16021790555060608201518160030160006101000a81548173ffffffffffffffffffffffffffffffffffffffff021916908373ffffffffffffffffffffffffffffffffffffffff1602179055506080820151816004015560a08201518160050190805190602001906115a5929190612761565b5060c0820151816006015560e08201518160070160006101000a81548160ff021916908360088111156115d457fe5b02179055506101008201518160070160016101000a81548173ffffffffffffffffffffffffffffffffffffffff021916908373ffffffffffffffffffffffffffffffffffffffff1602179055506101208201518160080160006101000a81548173ffffffffffffffffffffffffffffffffffffffff021916908373ffffffffffffffffffffffffffffffffffffffff1602179055506101408201518160090160006101000a81548173ffffffffffffffffffffffffffffffffffffffff021916908373ffffffffffffffffffffffffffffffffffffffff1602179055509050506001600654016006819055507f7d4a1251a63d69c96dbf9b695931468b4ab1254fcc77bfa964210d9d1237f22c846040518082815260200191505060405180910390a150505050565b61171181600161249a90919063ffffffff16565b8073ffffffffffffffffffffffffffffffffffffffff167fc088beaf9bee31048eaa164432314f2972aeef29f145258bc963d2e6dc93e48d60405160405180910390a250565b600061176d8260026125f990919063ffffffff16565b9050919050565b61178881600061254990919063ffffffff16565b8073ffffffffffffffffffffffffffffffffffffffff167f561138658ca49a8540dc70dcfe64c9026c1c5b9344642242dd6562970f9c127860405160405180910390a250565b6117e281600061249a90919063ffffffff16565b8073ffffffffffffffffffffffffffffffffffffffff167f2fed5abf6a80d6dfe30b4895481b2fc5d7dce5f8f7b931832f4a2947d5040c7f60405160405180910390a250565b61183c81600261249a90919063ffffffff16565b8073ffffffffffffffffffffffffffffffffffffffff167fdb7176e79cffef81cb01767dd0447a0b24bb72ca9778d4b245581086b2a7e6db60405160405180910390a250565b60006118988260036125f990919063ffffffff16565b9050919050565b6118b381600261254990919063ffffffff16565b8073ffffffffffffffffffffffffffffffffffffffff167f71ae26cad02663e3d92efd6ec56031a80d74a20c0ab4183faa8bf262261c9baa60405160405180910390a250565b6000808260006007600083815260200190815260200160002060060154905080341015151561192757600080fd5b846005600881111561193557fe5b6007600083815260200190815260200160002060070160009054906101000a900460ff16600881111561196457fe5b14151561197057600080fd5b6007600087815260200190815260200160002094508460060154340393508460080160009054906101000a900473ffffffffffffffffffffffffffffffffffffffff1673ffffffffffffffffffffffffffffffffffffffff166108fc86600601549081150290604051600060405180830381858888f193505050501580156119fc573d6000803e3d6000fd5b503373ffffffffffffffffffffffffffffffffffffffff166108fc859081150290604051600060405180830381858888f19350505050158015611a43573d6000803e3d6000fd5b50338560020160006101000a81548173ffffffffffffffffffffffffffffffffffffffff021916908373ffffffffffffffffffffffffffffffffffffffff160217905550338560090160006101000a81548173ffffffffffffffffffffffffffffffffffffffff021916908373ffffffffffffffffffffffffffffffffffffffff16021790555060068560070160006101000a81548160ff02191690836008811115611aeb57fe5b02179055507f92f64ca637d023f354075a4be751b169c1a8a9ccb6d33cdd0cb3520543995727866040518082815260200191505060405180910390a1505050505050565b60008160076008811115611b3f57fe5b6007600083815260200190815260200160002060070160009054906101000a900460ff166008811115611b6e57fe5b141515611b7a57600080fd5b6007600084815260200190815260200160002091503373ffffffffffffffffffffffffffffffffffffffff168260090160009054906101000a900473ffffffffffffffffffffffffffffffffffffffff1673ffffffffffffffffffffffffffffffffffffffff16141515611c7c576040517f08c379a00000000000000000000000000000000000000000000000000000000081526004018080602001828103825260258152602001807f436f6e73756d65722063616e206d61726b20736d61727470686f6e652072656381526020017f656976656400000000000000000000000000000000000000000000000000000081525060400191505060405180910390fd5b60088260070160006101000a81548160ff02191690836008811115611c9d57fe5b02179055507fbab163f2da28430bab730ae05df46dce1bd9afc246c0c127134bfe9dc18e053c836040518082815260200191505060405180910390a1505050565b60008082600060076000838152602001908152602001600020600601549050803410151515611d0c57600080fd5b8460026008811115611d1a57fe5b6007600083815260200190815260200160002060070160009054906101000a900460ff166008811115611d4957fe5b141515611d5557600080fd5b6007600087815260200190815260200160002094508460060154340393508460070160019054906101000a900473ffffffffffffffffffffffffffffffffffffffff1673ffffffffffffffffffffffffffffffffffffffff166108fc86600601549081150290604051600060405180830381858888f19350505050158015611de1573d6000803e3d6000fd5b503373ffffffffffffffffffffffffffffffffffffffff166108fc859081150290604051600060405180830381858888f19350505050158015611e28573d6000803e3d6000fd5b50338560020160006101000a81548173ffffffffffffffffffffffffffffffffffffffff021916908373ffffffffffffffffffffffffffffffffffffffff16021790555060038560070160006101000a81548160ff02191690836008811115611e8d57fe5b0217905550338560080160006101000a81548173ffffffffffffffffffffffffffffffffffffffff021916908373ffffffffffffffffffffffffffffffffffffffff1602179055507fdcc15ca27987f4c03e1b3c669ed6df7638e823e8fc63f681529e35e0da23bd7f866040518082815260200191505060405180910390a1505050505050565b600080600080600060606000806000806000611f2e61268d565b60008d14151515611fa7576040517f08c379a000000000000000000000000000000000000000000000000000000000815260040180806020018281038252600e8152602001807f5550432063616e2774206265203000000000000000000000000000000000000081525060200191505060405180910390fd5b600760008e8152602001908152602001600020610160604051908101604052908160008201548152602001600182015481526020016002820160009054906101000a900473ffffffffffffffffffffffffffffffffffffffff1673ffffffffffffffffffffffffffffffffffffffff1673ffffffffffffffffffffffffffffffffffffffff1681526020016003820160009054906101000a900473ffffffffffffffffffffffffffffffffffffffff1673ffffffffffffffffffffffffffffffffffffffff1673ffffffffffffffffffffffffffffffffffffffff16815260200160048201548152602001600582018054600181600116156101000203166002900480601f01602080910402602001604051908101604052809291908181526020018280546001816001161561010002031660029004801561212a5780601f106120ff5761010080835404028352916020019161212a565b820191906000526020600020905b81548152906001019060200180831161210d57829003601f168201915b50505050508152602001600682015481526020016007820160009054906101000a900460ff16600881111561215b57fe5b600881111561216657fe5b81526020016007820160019054906101000a900473ffffffffffffffffffffffffffffffffffffffff1673ffffffffffffffffffffffffffffffffffffffff1673ffffffffffffffffffffffffffffffffffffffff1681526020016008820160009054906101000a900473ffffffffffffffffffffffffffffffffffffffff1673ffffffffffffffffffffffffffffffffffffffff1673ffffffffffffffffffffffffffffffffffffffff1681526020016009820160009054906101000a900473ffffffffffffffffffffffffffffffffffffffff1673ffffffffffffffffffffffffffffffffffffffff1673ffffffffffffffffffffffffffffffffffffffff1681525050905080600001519b5080602001519a508060400151995080606001519850806080015197508060a0015196508060c0015195508060e0015194508061010001519350806101200151925080610140015191505091939597999b90929496989a50565b600081600360088111156122de57fe5b6007600083815260200190815260200160002060070160009054906101000a900460ff16600881111561230d57fe5b14151561231957600080fd5b6007600084815260200190815260200160002091503373ffffffffffffffffffffffffffffffffffffffff168260020160009054906101000a900473ffffffffffffffffffffffffffffffffffffffff1673ffffffffffffffffffffffffffffffffffffffff1614151561241b576040517f08c379a00000000000000000000000000000000000000000000000000000000081526004018080602001828103825260218152602001807f4e6f74207468652072657461696c6572206f662074686520676976656e20757081526020017f630000000000000000000000000000000000000000000000000000000000000081525060400191505060405180910390fd5b60048260070160006101000a81548160ff0219169083600881111561243c57fe5b02179055507f322f34e90f2269750b3e28178631d975cc678db36f21098fe548b7f755ce0bd0836040518082815260200191505060405180910390a1505050565b60006124938260016125f990919063ffffffff16565b9050919050565b600073ffffffffffffffffffffffffffffffffffffffff168173ffffffffffffffffffffffffffffffffffffffff16141515156124d657600080fd5b6124e082826125f9565b15156124eb57600080fd5b60008260000160008373ffffffffffffffffffffffffffffffffffffffff1673ffffffffffffffffffffffffffffffffffffffff16815260200190815260200160002060006101000a81548160ff0219169083151502179055505050565b600073ffffffffffffffffffffffffffffffffffffffff168173ffffffffffffffffffffffffffffffffffffffff161415151561258557600080fd5b61258f82826125f9565b15151561259b57600080fd5b60018260000160008373ffffffffffffffffffffffffffffffffffffffff1673ffffffffffffffffffffffffffffffffffffffff16815260200190815260200160002060006101000a81548160ff0219169083151502179055505050565b60008073ffffffffffffffffffffffffffffffffffffffff168273ffffffffffffffffffffffffffffffffffffffff161415151561263657600080fd5b8260000160008373ffffffffffffffffffffffffffffffffffffffff1673ffffffffffffffffffffffffffffffffffffffff16815260200190815260200160002060009054906101000a900460ff16905092915050565b610160604051908101604052806000815260200160008152602001600073ffffffffffffffffffffffffffffffffffffffff168152602001600073ffffffffffffffffffffffffffffffffffffffff1681526020016000815260200160608152602001600081526020016000600881111561270457fe5b8152602001600073ffffffffffffffffffffffffffffffffffffffff168152602001600073ffffffffffffffffffffffffffffffffffffffff168152602001600073ffffffffffffffffffffffffffffffffffffffff1681525090565b828054600181600116156101000203166002900490600052602060002090601f016020900481019282601f106127a257805160ff19168380011785556127d0565b828001600101855582156127d0579182015b828111156127cf5782518255916020019190600101906127b4565b5b5090506127dd91906127e1565b5090565b61280391905b808211156127ff5760008160009055506001016127e7565b5090565b905600a165627a7a723058205e2bc85b635e62141dfb7ad86e49fc5c05a63e32abca2fac94cffdc9f0ec34440029",
  "source": "pragma solidity ^0.4.24;\n// Define a contract 'Supplychain'\nimport \"../accesscontrols/ComponentManufacturerRole.sol\";\nimport \"../accesscontrols/SmartphoneMakerRole.sol\";\nimport \"../accesscontrols/RetailerRole.sol\";\nimport \"../accesscontrols/ConsumerRole.sol\";\nimport \"./Items.sol\";\n\ncontract SupplyChain is ComponentManufacturerRole, SmartphoneMakerRole, RetailerRole, ConsumerRole {\n\n  // Define 'owner'\n    address private owner;\n\n  // Define a variable called 'upc' for Universal Product Code (UPC)\n    uint  upc;\n\n    // Define a variable called 'sku' for Stock Keeping Unit (SKU)\n    uint  sku;\n\n    // Define a public mapping 'items' that maps the UPC to an Item.\n    mapping (uint => Items.Item) items;\n    \n    // Define a public mapping 'itemsHistory' that maps the UPC to an array of TxHash, \n    // that track its journey through the supply chain -- to be sent from DApp.\n    mapping (uint => string[]) itemsHistory;\n\n    Items.State constant defaultState = Items.State.NoState;\n\n    // Define 8 events with the same 8 state values and accept 'upc' as input argument\n    event ComponentsManufactured(uint upc);\n    event SmartphoneAssembled(uint upc);\n    event ShippedToRetailer(uint upc);\n    event ReceivedByRetailer(uint upc);\n    event OnSale(uint upc);\n    event Sold(uint upc);\n    event ShippedToConsumer(uint upc);\n    event ReceivedByConsumer(uint upc);\n\n    // Define a modifer that checks to see if msg.sender == owner of the contract\n    modifier onlyOwner() {\n        require(msg.sender == owner);\n        _;\n    }\n\n    // Define a modifer that verifies the Caller\n    modifier verifyCaller (address _address) {\n        require(msg.sender == _address); \n        _;\n    }\n\n    // Define a modifier that checks if the paid amount is sufficient to cover the price\n    modifier paidEnough(uint _price) { \n        require(msg.value >= _price); \n        _;\n    }\n\n    // Define a modifier that checks the price and refunds the remaining balance\n    modifier checkValue(uint _upc) {\n        _;\n        uint _price = items[_upc].price;\n        uint amountToReturn = msg.value - _price;\n        items[_upc].consumerID.transfer(amountToReturn);\n    }\n\n    modifier canBuyItem(uint _upc) {\n        uint _price = items[_upc].price;\n        require(msg.value >= _price);\n        _;\n    }\n\n    modifier componentsManufactured(uint _upc) {\n        require(items[_upc].itemState == Items.State.ComponentsManufactured);\n        _;\n    }\n\n    \n    modifier smartphoneAssembled(uint _upc) {\n        require(items[_upc].itemState == Items.State.SmartphoneAssembled);\n        _;\n    }\n\n\n    modifier shippedToRetailer(uint _upc) {\n        require(items[_upc].itemState == Items.State.ShippedToRetailer);\n        _;\n    }\n\n\n    modifier receivedByRetailer(uint _upc) {\n        require(items[_upc].itemState == Items.State.ReceivedByRetailer || items[_upc].itemState == Items.State.OnSale);\n        _;\n    }\n\n    modifier onSale(uint _upc) {\n        require(items[_upc].itemState == Items.State.OnSale);\n        _;\n    }\n\n    modifier sold(uint _upc) {\n        require(items[_upc].itemState == Items.State.Sold);\n        _;\n    }\n\n    modifier shippedToConsumer(uint _upc) {\n        require(items[_upc].itemState == Items.State.ShippedToConsumer);\n        _;\n    }\n\n    modifier receivedByConsumer(uint _upc) {\n        require(items[_upc].itemState == Items.State.ReceivedByConsumer);\n        _;\n    }\n   \n\n    // In the constructor set 'owner' to the address that instantiated the contract\n    // and set 'sku' to 1\n    // and set 'upc' to 1\n    constructor() public payable {\n        owner = msg.sender;\n        sku = 1;\n        upc = 1;\n    }\n\n    // Define a function 'kill' if required\n    function kill() public {\n        if (msg.sender == owner) {\n            selfdestruct(owner);\n        }\n    }\n\n    \n    function getItemPrice(uint _upc) public view returns(uint price) {\n        require(items[_upc].price > 0, \"Item price is not greater than zero\");\n        return items[_upc].price;\n    }\n\n    function isItemOnSale(uint _upc) public view returns(bool) {\n        return items[_upc].itemState == Items.State.OnSale;\n    }\n    \n    function manufactureComponents(uint _upc, string  _notes, uint _price ) public onlyManufacturer() \n    {\n        require(_upc!=0,\"UPC can't be zero\");\n        require(items[_upc].upc != _upc, \"Item already exists with the given upc\");\n        require(_price>0, \"Price is not greater than zero\");\n        Items.Item memory i = Items.Item(\n            sku,\n            _upc,\n            msg.sender,\n            msg.sender,\n            sku+upc,\n            _notes,\n            _price,\n            Items.State.ComponentsManufactured,\n            0,\n            0,\n            0\n        );\n        items[_upc] = i;\n        // Increment sku\n        sku = sku + 1;\n        // Emit the appropriate event\n        emit ComponentsManufactured(_upc);\n\n    }\n\n   \n    function assembleSmartphone(uint _upc, uint assemblyCost) public componentsManufactured(_upc) onlySmartphoneMaker()\n\n    {\n\n        Items.Item storage i = items[_upc];\n        require(i.smartphoneMakerID == 0, \"Smartphone already assembled\");\n        require(assemblyCost > 0, \"Assembly cost is not greater than zero\");\n        i.ownerID = msg.sender;\n        i.price = i.price + assemblyCost;\n        i.itemState = Items.State.SmartphoneAssembled;\n        i.smartphoneMakerID = msg.sender;\n\n        emit SmartphoneAssembled(_upc);\n    }\n\n    function retailerBuy(uint _upc) public payable canBuyItem(_upc) smartphoneAssembled(_upc) {\n        \n        Items.Item storage i = items[_upc];\n\n        uint refundAmount = msg.value - i.price;\n        i.smartphoneMakerID.transfer(i.price);\n        msg.sender.transfer(refundAmount);\n        i.ownerID = msg.sender;\n        i.itemState = Items.State.ShippedToRetailer;\n        i.retailerID = msg.sender;\n        emit ShippedToRetailer(_upc);\n    }\n\n    function markReceivedByRetailer(uint _upc) public shippedToRetailer(_upc) {\n\n        Items.Item storage i = items[_upc];\n        require(i.ownerID == msg.sender,\"Not the retailer of the given upc\");\n        i.itemState = Items.State.ReceivedByRetailer;\n\n        emit ReceivedByRetailer(_upc);\n    }\n\n    function putForSale(uint _upc, uint price) public receivedByRetailer(_upc) {\n        Items.Item storage i = items[_upc];\n        require(i.ownerID == msg.sender,\"Not the retailer of the given upc\");\n        i.itemState = Items.State.OnSale;\n        i.price += price;\n        emit OnSale(_upc);\n\n    }\n    \n\n    function consumerBuy(uint _upc) public payable canBuyItem(_upc) onSale(_upc) {\n\n        Items.Item storage i = items[_upc];\n\n        uint refundAmount = msg.value - i.price;\n        i.retailerID.transfer(i.price);\n        msg.sender.transfer(refundAmount);\n        i.ownerID = msg.sender;\n        i.consumerID = msg.sender;\n        i.itemState = Items.State.Sold;\n        emit Sold(_upc);        \n    }\n\n    function shipToConsumer(uint _upc) public sold(_upc) {\n        Items.Item storage i = items[_upc];\n        require(i.retailerID == msg.sender, \"Only the retailer of that smartphone can ship\");\n\n        i.itemState = Items.State.ShippedToConsumer;\n\n        emit ShippedToConsumer(_upc);\n    } \n\n    function markReceivedByConsumer(uint _upc) public shippedToConsumer(_upc) {\n        Items.Item storage i = items[_upc];\n        require(i.consumerID == msg.sender,\"Consumer can mark smartphone received\");\n\n        i.itemState = Items.State.ReceivedByConsumer;\n\n        emit ReceivedByConsumer(_upc);\n    }\n\n    function getItemInfo(uint _upc) public view returns\n    (\n        uint    iSku, \n        uint    iUpc,\n        address ownerID,  // Metamask-Ethereum address of the current owner as the product moves through 8 stages\n        address originID, // Metamask-Ethereum address of the Farmer\n        uint    productID,  // Product ID potentially a combination of upc + sku\n        string  productNotes, // Product Notes\n        uint    price, // Product Price\n        Items.State   itemState,  // Product State as represented in the enum above\n        address smartphoneMakerID,\n        address retailerID, // Metamask-Ethereum address of the Retailer\n        address consumerID\n    )\n     {\n        require(_upc!=0,\"UPC can't be 0\");\n        Items.Item memory i = items[_upc];\n        iSku = i.sku;\n        iUpc = i.upc;\n        ownerID = i.ownerID;\n        originID = i.originID;\n        productID = i.productID;\n        productNotes = i.productNotes;\n        price = i.price;\n        itemState = i.itemState;\n        smartphoneMakerID = i.smartphoneMakerID;\n        retailerID = i.retailerID;\n        consumerID = i.consumerID;\n\n    }\n\n}\n",
  "sourcePath": "/home/ubuntu/smartphone-supplychain-solidity/contracts/base/SupplyChain.sol",
  "compiler": {
    "name": "solc",
    "version": "0.4.26+commit.4563c3fc.Emscripten.clang"
  },
  "schemaVersion": "2.0.3",
  "updatedAt": "2020-02-12T13:40:59.900Z"
}